{
  "_format": "hh-sol-artifact-1",
  "contractName": "Voting",
  "sourceName": "contracts/Voting.sol",
  "abi": [
    {
      "inputs": [],
      "stateMutability": "nonpayable",
      "type": "constructor"
    },
    {
      "inputs": [
        {
          "internalType": "address",
          "name": "owner",
          "type": "address"
        }
      ],
      "name": "OwnableInvalidOwner",
      "type": "error"
    },
    {
      "inputs": [
        {
          "internalType": "address",
          "name": "account",
          "type": "address"
        }
      ],
      "name": "OwnableUnauthorizedAccount",
      "type": "error"
    },
    {
      "anonymous": false,
      "inputs": [
        {
          "indexed": true,
          "internalType": "address",
          "name": "previousOwner",
          "type": "address"
        },
        {
          "indexed": true,
          "internalType": "address",
          "name": "newOwner",
          "type": "address"
        }
      ],
      "name": "OwnershipTransferred",
      "type": "event"
    },
    {
      "anonymous": false,
      "inputs": [
        {
          "indexed": false,
          "internalType": "uint256",
          "name": "proposalId",
          "type": "uint256"
        }
      ],
      "name": "ProposalRegistered",
      "type": "event"
    },
    {
      "anonymous": false,
      "inputs": [
        {
          "indexed": true,
          "internalType": "address",
          "name": "voter",
          "type": "address"
        },
        {
          "indexed": false,
          "internalType": "uint256",
          "name": "proposalId",
          "type": "uint256"
        }
      ],
      "name": "Voted",
      "type": "event"
    },
    {
      "anonymous": false,
      "inputs": [
        {
          "indexed": true,
          "internalType": "address",
          "name": "voterAddress",
          "type": "address"
        }
      ],
      "name": "VoterRegistered",
      "type": "event"
    },
    {
      "anonymous": false,
      "inputs": [
        {
          "indexed": false,
          "internalType": "enum Voting.WorkflowStatus",
          "name": "previousStatus",
          "type": "uint8"
        },
        {
          "indexed": false,
          "internalType": "enum Voting.WorkflowStatus",
          "name": "newStatus",
          "type": "uint8"
        }
      ],
      "name": "WorkflowStatusChange",
      "type": "event"
    },
    {
      "inputs": [],
      "name": "endProposalsRegistration",
      "outputs": [],
      "stateMutability": "nonpayable",
      "type": "function"
    },
    {
      "inputs": [],
      "name": "endVotingSession",
      "outputs": [],
      "stateMutability": "nonpayable",
      "type": "function"
    },
    {
      "inputs": [],
      "name": "owner",
      "outputs": [
        {
          "internalType": "address",
          "name": "",
          "type": "address"
        }
      ],
      "stateMutability": "view",
      "type": "function"
    },
    {
      "inputs": [
        {
          "internalType": "uint256",
          "name": "",
          "type": "uint256"
        }
      ],
      "name": "proposals",
      "outputs": [
        {
          "internalType": "string",
          "name": "description",
          "type": "string"
        },
        {
          "internalType": "uint256",
          "name": "voteCount",
          "type": "uint256"
        }
      ],
      "stateMutability": "view",
      "type": "function"
    },
    {
      "inputs": [
        {
          "internalType": "address",
          "name": "_voter",
          "type": "address"
        }
      ],
      "name": "registerVoter",
      "outputs": [],
      "stateMutability": "nonpayable",
      "type": "function"
    },
    {
      "inputs": [],
      "name": "renounceOwnership",
      "outputs": [],
      "stateMutability": "nonpayable",
      "type": "function"
    },
    {
      "inputs": [],
      "name": "startProposalsRegistration",
      "outputs": [],
      "stateMutability": "nonpayable",
      "type": "function"
    },
    {
      "inputs": [],
      "name": "startVotingSession",
      "outputs": [],
      "stateMutability": "nonpayable",
      "type": "function"
    },
    {
      "inputs": [
        {
          "internalType": "string",
          "name": "_description",
          "type": "string"
        }
      ],
      "name": "submitProposal",
      "outputs": [],
      "stateMutability": "nonpayable",
      "type": "function"
    },
    {
      "inputs": [],
      "name": "tallyVotes",
      "outputs": [],
      "stateMutability": "nonpayable",
      "type": "function"
    },
    {
      "inputs": [
        {
          "internalType": "address",
          "name": "newOwner",
          "type": "address"
        }
      ],
      "name": "transferOwnership",
      "outputs": [],
      "stateMutability": "nonpayable",
      "type": "function"
    },
    {
      "inputs": [
        {
          "internalType": "uint256",
          "name": "_proposalId",
          "type": "uint256"
        }
      ],
      "name": "vote",
      "outputs": [],
      "stateMutability": "nonpayable",
      "type": "function"
    },
    {
      "inputs": [
        {
          "internalType": "address",
          "name": "",
          "type": "address"
        }
      ],
      "name": "voters",
      "outputs": [
        {
          "internalType": "bool",
          "name": "isRegistered",
          "type": "bool"
        },
        {
          "internalType": "bool",
          "name": "hasVoted",
          "type": "bool"
        },
        {
          "internalType": "uint256",
          "name": "votedProposalId",
          "type": "uint256"
        }
      ],
      "stateMutability": "view",
      "type": "function"
    },
    {
      "inputs": [],
      "name": "winningProposalId",
      "outputs": [
        {
          "internalType": "uint256",
          "name": "",
          "type": "uint256"
        }
      ],
      "stateMutability": "view",
      "type": "function"
    },
    {
      "inputs": [],
      "name": "workflowStatus",
      "outputs": [
        {
          "internalType": "enum Voting.WorkflowStatus",
          "name": "",
          "type": "uint8"
        }
      ],
      "stateMutability": "view",
      "type": "function"
    }
  ],
  "bytecode": "0x60806040523480156200001157600080fd5b5033600073ffffffffffffffffffffffffffffffffffffffff168173ffffffffffffffffffffffffffffffffffffffff1603620000885760006040517f1e4fbdf70000000000000000000000000000000000000000000000000000000081526004016200007f9190620001d6565b60405180910390fd5b6200009981620000cd60201b60201c565b5060008060146101000a81548160ff02191690836005811115620000c257620000c1620001f3565b5b021790555062000222565b60008060009054906101000a900473ffffffffffffffffffffffffffffffffffffffff169050816000806101000a81548173ffffffffffffffffffffffffffffffffffffffff021916908373ffffffffffffffffffffffffffffffffffffffff1602179055508173ffffffffffffffffffffffffffffffffffffffff168173ffffffffffffffffffffffffffffffffffffffff167f8be0079c531659141344cd1fd0a4f28419497f9722a3daafe3b4186f6b6457e060405160405180910390a35050565b600073ffffffffffffffffffffffffffffffffffffffff82169050919050565b6000620001be8262000191565b9050919050565b620001d081620001b1565b82525050565b6000602082019050620001ed6000830184620001c5565b92915050565b7f4e487b7100000000000000000000000000000000000000000000000000000000600052602160045260246000fd5b611ae480620002326000396000f3fe608060405234801561001057600080fd5b50600436106100f55760003560e01c80638da5cb5b11610097578063c64963c511610066578063c64963c514610215578063e09b8c7914610233578063ee74c6781461023d578063f2fde38b14610247576100f5565b80638da5cb5b1461019d578063a1edffa2146101bb578063a3ec138d146101d9578063a7bfab161461020b576100f5565b8063378a2178116100d3578063378a21781461016357806338db6dd31461016d5780636c29744514610189578063715018a614610193576100f5565b80630121b93f146100fa578063013cf08b14610116578063373d6d5e14610147575b600080fd5b610114600480360381019061010f91906110c9565b610263565b005b610130600480360381019061012b91906110c9565b61056f565b60405161013e929190611195565b60405180910390f35b610161600480360381019061015c91906112fa565b61062b565b005b61016b6107e0565b005b610187600480360381019061018291906113a1565b61094b565b005b610191610a6c565b005b61019b610b54565b005b6101a5610b68565b6040516101b291906113dd565b60405180910390f35b6101c3610b91565b6040516101d0919061146f565b60405180910390f35b6101f360048036038101906101ee91906113a1565b610ba4565b604051610202939291906114a5565b60405180910390f35b610213610be8565b005b61021d610cd0565b60405161022a91906114dc565b60405180910390f35b61023b610cd6565b005b610245610dbe565b005b610261600480360381019061025c91906113a1565b610ea6565b005b600260003373ffffffffffffffffffffffffffffffffffffffff1673ffffffffffffffffffffffffffffffffffffffff16815260200190815260200160002060000160009054906101000a900460ff166102f2576040517f08c379a00000000000000000000000000000000000000000000000000000000081526004016102e990611569565b60405180910390fd5b6003806005811115610307576103066113f8565b5b600060149054906101000a900460ff166005811115610329576103286113f8565b5b14610369576040517f08c379a0000000000000000000000000000000000000000000000000000000008152600401610360906115d5565b60405180910390fd5b600260003373ffffffffffffffffffffffffffffffffffffffff1673ffffffffffffffffffffffffffffffffffffffff16815260200190815260200160002060000160019054906101000a900460ff16156103f9576040517f08c379a00000000000000000000000000000000000000000000000000000000081526004016103f090611641565b60405180910390fd5b6003805490508210610440576040517f08c379a0000000000000000000000000000000000000000000000000000000008152600401610437906116ad565b60405180910390fd5b6001600260003373ffffffffffffffffffffffffffffffffffffffff1673ffffffffffffffffffffffffffffffffffffffff16815260200190815260200160002060000160016101000a81548160ff02191690831515021790555081600260003373ffffffffffffffffffffffffffffffffffffffff1673ffffffffffffffffffffffffffffffffffffffff16815260200190815260200160002060010181905550600382815481106104f6576104f56116cd565b5b906000526020600020906002020160010160008154809291906105189061172b565b91905055503373ffffffffffffffffffffffffffffffffffffffff167f4d99b957a2bc29a30ebd96a7be8e68fe50a3c701db28a91436490b7d53870ca48360405161056391906114dc565b60405180910390a25050565b6003818154811061057f57600080fd5b90600052602060002090600202016000915090508060000180546105a2906117a2565b80601f01602080910402602001604051908101604052809291908181526020018280546105ce906117a2565b801561061b5780601f106105f05761010080835404028352916020019161061b565b820191906000526020600020905b8154815290600101906020018083116105fe57829003601f168201915b5050505050908060010154905082565b600260003373ffffffffffffffffffffffffffffffffffffffff1673ffffffffffffffffffffffffffffffffffffffff16815260200190815260200160002060000160009054906101000a900460ff166106ba576040517f08c379a00000000000000000000000000000000000000000000000000000000081526004016106b190611569565b60405180910390fd5b60018060058111156106cf576106ce6113f8565b5b600060149054906101000a900460ff1660058111156106f1576106f06113f8565b5b14610731576040517f08c379a0000000000000000000000000000000000000000000000000000000008152600401610728906115d5565b60405180910390fd5b60036040518060400160405280848152602001600081525090806001815401808255809150506001900390600052602060002090600202016000909190919091506000820151816000019081610787919061197f565b506020820151816001015550507f92e393e9b54e2f801d3ea4beb0c5e71a21cc34a5d34b77d0fb8a3aa1650dc18f60016003805490506107c79190611a51565b6040516107d491906114dc565b60405180910390a15050565b6107e8610f2c565b60048060058111156107fd576107fc6113f8565b5b600060149054906101000a900460ff16600581111561081f5761081e6113f8565b5b1461085f576040517f08c379a0000000000000000000000000000000000000000000000000000000008152600401610856906115d5565b60405180910390fd5b6005600060146101000a81548160ff02191690836005811115610885576108846113f8565b5b02179055507f0a97a4ee45751e2abf3e4fc8946939630b11b371ea8ae39ccdc3056e98f5cc3f600460056040516108bd929190611a85565b60405180910390a16000805b6003805490508110156109465781600382815481106108eb576108ea6116cd565b5b90600052602060002090600202016001015411156109335760038181548110610917576109166116cd565b5b9060005260206000209060020201600101549150806001819055505b808061093e9061172b565b9150506108c9565b505050565b610953610f2c565b6000806005811115610968576109676113f8565b5b600060149054906101000a900460ff16600581111561098a576109896113f8565b5b146109ca576040517f08c379a00000000000000000000000000000000000000000000000000000000081526004016109c1906115d5565b60405180910390fd5b6001600260008473ffffffffffffffffffffffffffffffffffffffff1673ffffffffffffffffffffffffffffffffffffffff16815260200190815260200160002060000160006101000a81548160ff0219169083151502179055508173ffffffffffffffffffffffffffffffffffffffff167fb6be2187d059cc2a55fe29e0e503b566e1e0f8c8780096e185429350acffd3dd60405160405180910390a25050565b610a74610f2c565b6001806005811115610a8957610a886113f8565b5b600060149054906101000a900460ff166005811115610aab57610aaa6113f8565b5b14610aeb576040517f08c379a0000000000000000000000000000000000000000000000000000000008152600401610ae2906115d5565b60405180910390fd5b6002600060146101000a81548160ff02191690836005811115610b1157610b106113f8565b5b02179055507f0a97a4ee45751e2abf3e4fc8946939630b11b371ea8ae39ccdc3056e98f5cc3f60016002604051610b49929190611a85565b60405180910390a150565b610b5c610f2c565b610b666000610fb3565b565b60008060009054906101000a900473ffffffffffffffffffffffffffffffffffffffff16905090565b600060149054906101000a900460ff1681565b60026020528060005260406000206000915090508060000160009054906101000a900460ff16908060000160019054906101000a900460ff16908060010154905083565b610bf0610f2c565b6003806005811115610c0557610c046113f8565b5b600060149054906101000a900460ff166005811115610c2757610c266113f8565b5b14610c67576040517f08c379a0000000000000000000000000000000000000000000000000000000008152600401610c5e906115d5565b60405180910390fd5b6004600060146101000a81548160ff02191690836005811115610c8d57610c8c6113f8565b5b02179055507f0a97a4ee45751e2abf3e4fc8946939630b11b371ea8ae39ccdc3056e98f5cc3f60036004604051610cc5929190611a85565b60405180910390a150565b60015481565b610cde610f2c565b6000806005811115610cf357610cf26113f8565b5b600060149054906101000a900460ff166005811115610d1557610d146113f8565b5b14610d55576040517f08c379a0000000000000000000000000000000000000000000000000000000008152600401610d4c906115d5565b60405180910390fd5b6001600060146101000a81548160ff02191690836005811115610d7b57610d7a6113f8565b5b02179055507f0a97a4ee45751e2abf3e4fc8946939630b11b371ea8ae39ccdc3056e98f5cc3f60006001604051610db3929190611a85565b60405180910390a150565b610dc6610f2c565b6002806005811115610ddb57610dda6113f8565b5b600060149054906101000a900460ff166005811115610dfd57610dfc6113f8565b5b14610e3d576040517f08c379a0000000000000000000000000000000000000000000000000000000008152600401610e34906115d5565b60405180910390fd5b6003600060146101000a81548160ff02191690836005811115610e6357610e626113f8565b5b02179055507f0a97a4ee45751e2abf3e4fc8946939630b11b371ea8ae39ccdc3056e98f5cc3f60026003604051610e9b929190611a85565b60405180910390a150565b610eae610f2c565b600073ffffffffffffffffffffffffffffffffffffffff168173ffffffffffffffffffffffffffffffffffffffff1603610f205760006040517f1e4fbdf7000000000000000000000000000000000000000000000000000000008152600401610f1791906113dd565b60405180910390fd5b610f2981610fb3565b50565b610f34611077565b73ffffffffffffffffffffffffffffffffffffffff16610f52610b68565b73ffffffffffffffffffffffffffffffffffffffff1614610fb157610f75611077565b6040517f118cdaa7000000000000000000000000000000000000000000000000000000008152600401610fa891906113dd565b60405180910390fd5b565b60008060009054906101000a900473ffffffffffffffffffffffffffffffffffffffff169050816000806101000a81548173ffffffffffffffffffffffffffffffffffffffff021916908373ffffffffffffffffffffffffffffffffffffffff1602179055508173ffffffffffffffffffffffffffffffffffffffff168173ffffffffffffffffffffffffffffffffffffffff167f8be0079c531659141344cd1fd0a4f28419497f9722a3daafe3b4186f6b6457e060405160405180910390a35050565b600033905090565b6000604051905090565b600080fd5b600080fd5b6000819050919050565b6110a681611093565b81146110b157600080fd5b50565b6000813590506110c38161109d565b92915050565b6000602082840312156110df576110de611089565b5b60006110ed848285016110b4565b91505092915050565b600081519050919050565b600082825260208201905092915050565b60005b83811015611130578082015181840152602081019050611115565b60008484015250505050565b6000601f19601f8301169050919050565b6000611158826110f6565b6111628185611101565b9350611172818560208601611112565b61117b8161113c565b840191505092915050565b61118f81611093565b82525050565b600060408201905081810360008301526111af818561114d565b90506111be6020830184611186565b9392505050565b600080fd5b600080fd5b7f4e487b7100000000000000000000000000000000000000000000000000000000600052604160045260246000fd5b6112078261113c565b810181811067ffffffffffffffff82111715611226576112256111cf565b5b80604052505050565b600061123961107f565b905061124582826111fe565b919050565b600067ffffffffffffffff821115611265576112646111cf565b5b61126e8261113c565b9050602081019050919050565b82818337600083830152505050565b600061129d6112988461124a565b61122f565b9050828152602081018484840111156112b9576112b86111ca565b5b6112c484828561127b565b509392505050565b600082601f8301126112e1576112e06111c5565b5b81356112f184826020860161128a565b91505092915050565b6000602082840312156113105761130f611089565b5b600082013567ffffffffffffffff81111561132e5761132d61108e565b5b61133a848285016112cc565b91505092915050565b600073ffffffffffffffffffffffffffffffffffffffff82169050919050565b600061136e82611343565b9050919050565b61137e81611363565b811461138957600080fd5b50565b60008135905061139b81611375565b92915050565b6000602082840312156113b7576113b6611089565b5b60006113c58482850161138c565b91505092915050565b6113d781611363565b82525050565b60006020820190506113f260008301846113ce565b92915050565b7f4e487b7100000000000000000000000000000000000000000000000000000000600052602160045260246000fd5b60068110611438576114376113f8565b5b50565b600081905061144982611427565b919050565b60006114598261143b565b9050919050565b6114698161144e565b82525050565b60006020820190506114846000830184611460565b92915050565b60008115159050919050565b61149f8161148a565b82525050565b60006060820190506114ba6000830186611496565b6114c76020830185611496565b6114d46040830184611186565b949350505050565b60006020820190506114f16000830184611186565b92915050565b7f4c6573207061727469636970616e747320646f6976656e74206574726520656e60008201527f72656769737472657320706f757220766f746572000000000000000000000000602082015250565b6000611553603483611101565b915061155e826114f7565b604082019050919050565b6000602082019050818103600083015261158281611546565b9050919050565b7f53746174757420696e76616c6964650000000000000000000000000000000000600082015250565b60006115bf600f83611101565b91506115ca82611589565b602082019050919050565b600060208201905081810360008301526115ee816115b2565b9050919050565b7f566f7573206176657a2064656a6120766f746520210000000000000000000000600082015250565b600061162b601583611101565b9150611636826115f5565b602082019050919050565b6000602082019050818103600083015261165a8161161e565b9050919050565b7f50726f706f73616c20494420496e76616c696465000000000000000000000000600082015250565b6000611697601483611101565b91506116a282611661565b602082019050919050565b600060208201905081810360008301526116c68161168a565b9050919050565b7f4e487b7100000000000000000000000000000000000000000000000000000000600052603260045260246000fd5b7f4e487b7100000000000000000000000000000000000000000000000000000000600052601160045260246000fd5b600061173682611093565b91507fffffffffffffffffffffffffffffffffffffffffffffffffffffffffffffffff8203611768576117676116fc565b5b600182019050919050565b7f4e487b7100000000000000000000000000000000000000000000000000000000600052602260045260246000fd5b600060028204905060018216806117ba57607f821691505b6020821081036117cd576117cc611773565b5b50919050565b60008190508160005260206000209050919050565b60006020601f8301049050919050565b600082821b905092915050565b6000600883026118357fffffffffffffffffffffffffffffffffffffffffffffffffffffffffffffffff826117f8565b61183f86836117f8565b95508019841693508086168417925050509392505050565b6000819050919050565b600061187c61187761187284611093565b611857565b611093565b9050919050565b6000819050919050565b61189683611861565b6118aa6118a282611883565b848454611805565b825550505050565b600090565b6118bf6118b2565b6118ca81848461188d565b505050565b5b818110156118ee576118e36000826118b7565b6001810190506118d0565b5050565b601f82111561193357611904816117d3565b61190d846117e8565b8101602085101561191c578190505b611930611928856117e8565b8301826118cf565b50505b505050565b600082821c905092915050565b600061195660001984600802611938565b1980831691505092915050565b600061196f8383611945565b9150826002028217905092915050565b611988826110f6565b67ffffffffffffffff8111156119a1576119a06111cf565b5b6119ab82546117a2565b6119b68282856118f2565b600060209050601f8311600181146119e957600084156119d7578287015190505b6119e18582611963565b865550611a49565b601f1984166119f7866117d3565b60005b82811015611a1f578489015182556001820191506020850194506020810190506119fa565b86831015611a3c5784890151611a38601f891682611945565b8355505b6001600288020188555050505b505050505050565b6000611a5c82611093565b9150611a6783611093565b9250828203905081811115611a7f57611a7e6116fc565b5b92915050565b6000604082019050611a9a6000830185611460565b611aa76020830184611460565b939250505056fea264697066735822122040a4de15ddb285c494d26b52d1d8c3d34ab90380cd4c7ffd8f89ed09df6dfb8964736f6c63430008150033",
  "linkReferences": {},
  "deployedLinkReferences": {}
}